:100000000C9434000C9451000C9451000C94510049
:100010000C9451000C9451000C9451000C9451001C
:100020000C9451000C9451000C9451000C9451000C
:100030000C9451000C9451000C9451000C945100FC
:100040000C9451000C9451000C945D030C94270304
:100050000C9451000C9451000C9451000C945100DC
:100060000C9451000C94510011241FBECFEFD8E026
:10007000DEBFCDBF11E0A0E0B1E0E8E2FCE002C0ED
:1000800005900D92A430B107D9F711E0A4E0B1E0DA
:1000900001C01D92AF31B107E1F70E943B020C9401
:1000A00012060C9400000F93FC01628343832483A7
:1000B0000583E1E8F0E0808188608083AFE6B0E00E
:1000C0008C9182608C9380E69AEE90938900809365
:1000D0008800808183608083EAE7F0E08081866029
:1000E0008083ACE7B0E08C9180648C9380818068E1
:1000F00080838081806480830F910895ECE7F0E035
:100100009081907F90839081892B8083EAE7F0E053
:10011000808180648083808186FDFDCF809178001E
:100120009091790096958795969587950895CF93A8
:10013000DF93EC0180E00E947E00888381E00E94D2
:100140007E008983DF91CF9108955F926F927F92B5
:100150008F929F92AF92BF92CF92DF92EF92FF92D7
:100160000F931F93CF93DF934C01562EFC016481B4
:1001700070E080E090E00E9401056B017C01F401D9
:10018000628170E080E090E00E94FF0420E030E0B7
:1001900040E05FE30E948D05C62FD72FB82EA92E11
:1001A000C701B6010C2F1D2F2B2D3A2DA901980147
:1001B0000E9407040E94D304662EC701B6012B2DAE
:1001C0003A2DA90198010E9406040E94D304762EBC
:1001D000F401658170E080E090E00E9401056B0110
:1001E0007C01F401638170E080E090E00E94FF04F4
:1001F00020E030E040E05FE30E948D05C62FD72F5E
:10020000B82EA92EC701B6010C2F1D2F2B2D3A2D6C
:10021000A90198010E9407040E94D304062FC70178
:10022000B601CC2EDD2EEB2CFA2CA70196010E94F4
:1002300006040E94D304D62F80E00E947E00C82FBF
:1002400081E00E947E008D1790F0081780F0C7159E
:1002500018F06C1608F0FAC0FCE65F1609F4F8C056
:1002600022E7521609F0F6C08C2F8195F4C06C1667
:1002700008F075C032E7531609F0EDC08D1708F08D
:100280003FC0082F10E0B801882777FD8095982F90
:100290000E9401054B015C01D0E0C058D040BE0176
:1002A000882777FD8095982F0E9401056B017C01BE
:1002B0008FEF90E0801B910BFC01BF01882777FD39
:1002C0008095982F0E9401059B01AC01C701B601E2
:1002D0000E946B0420E030E040E053E40E948D0572
:1002E0009B01AC01C501B4010E94070420E030E08D
:1002F00040E05FE30E9407040E94D304862FABC056
:10030000081708F0A8C0682F70E080E090E00E9415
:1003100001056B017C01D0E0C058D040BE018827A8
:1003200077FD8095982F0E940105A70196010E94F4
:100330006B0420E030E040E053E40E948D059B0117
:10034000AC01C701B6010E94060420E030E040E0A5
:100350005FE30E9407040E94D304862F7CC0C71568
:1003600008F079C0FCE65F1609F075C08D1708F03B
:100370003FC0082F10E0B801882777FD8095982F9F
:100380000E9401054B015C016FE770E06C1B710975
:10039000882777FD8095982F0E9401056B017C01CD
:1003A0008FEF90E0801B910B9C01B901882777FDAE
:1003B0008095982F0E9401059B01AC01C701B601F1
:1003C0000E946B0420E030E040E053E40E948D0581
:1003D0009B01AC01C501B4010E94070420E030E09C
:1003E00040E05FE30E9407040E94D304862F33C0DD
:1003F000081788F5682F70E080E090E00E94010502
:100400006B017C0160E870E06C1B7109882777FD47
:100410008095982F0E940105A70196010E946B0408
:1004200020E030E040E053E40E948D059B01AC01E8
:10043000C701B6010E94060420E030E040E05FE31F
:100440000E9407040E94D304862F05C08FE703C0D3
:100450008C2F01C080E0DF91CF911F910F91FF9011
:10046000EF90DF90CF90BF90AF909F908F907F9054
:100470006F905F900895CF93DF9300D000D000D0AD
:10048000CDB7DEB7CE01019663E043E02DE70AE782
:100490000E94530080E895E20E946E020F2EF6E65D
:1004A000FF2EF02D01E0CE0101966CE60E94A50022
:1004B000182FCE01019662E70E94A5008FEF90E70A
:1004C000A2E081509040A040E1F700C000006F2DF5
:1004D000702F812F90E00E94ED02E5CF9C0140E05B
:1004E00050E060E271EA87E090E00E94F005215060
:1004F0003040832F992787FD9A958093C5002093DC
:10050000C400E1ECF0E088E1808386E08093C200E3
:100510008081806A8083089570E0161617066CF457
:10052000E82FF92F20E030E080E0919189272F5FBC
:100530003F4F26173707CCF3089580E008950F93B7
:100540001F93CF93DF93C82F80930801E4E0F1E07D
:1005500081813281238194818083318322839383BB
:10056000863679F4CF0163E00E948C02C81749F403
:10057000609104010091050110910601D0910701DD
:1005800001C060E0702F812F9D2FDF91CF911F91CF
:100590000F910895FF920F931F93CF93DF930F92C4
:1005A000CDB7DEB709C089810E949F02662321F082
:1005B000F72E082F192F07C0CE0101960E94940331
:1005C000882389F760E07F2D802F912F0F90DF9196
:1005D000CF911F910F91FF9008950F931F93CF9389
:1005E000DF9300D000D0CDB7DEB769837A838B83E9
:1005F0009C830DB71EB7CE01019663E00E948C026A
:100600008C8300D000D000D08DB79EB701962FEF1D
:1006100035E5EDB7FEB73283218349815A816B817D
:100620007C81FC01428353836483758366E00E946E
:10063000E1030FB6F8941EBF0FBE0DBF0F900F90D1
:100640000F900F90DF91CF911F910F9108951F92FE
:100650000F920FB60F9211248F939F93EF93FF93F6
:1006600080910A018823D9F080910A0181508093FA
:100670000A01E0910201F091030181918093C6008B
:10068000F0930301E093020181E0EF31F80760F09D
:1006900085E191E0909303018093020105C0E1ECB4
:1006A000F0E080818F7D8083FF91EF919F918F910A
:1006B0000F900FBE0F901F9018951F920F920FB6BC
:1006C0000F9211242F938F939F93EF93FF93E091B9
:1006D0000001F09101018091C600808380910001AA
:1006E000909101010196909301018093000121E016
:1006F0008531920730F08BE091E090930101809377
:100700000001809109018A3028F4809109018F5FEE
:1007100080930901FF91EF919F918F912F910F90FD
:100720000FBE0F901F901895F89420910901222375
:10073000C1F020910901E0910001F0910101E21B5B
:10074000F10921E0EB30F20708F43A962091090113
:100750002150209309012081FC012083789481E0BD
:100760000895789480E00895CF93DF930F92CDB7EA
:10077000DEB7809109018823E1F3CE0101960E9442
:10078000940389810F90DF91CF910895F89490910F
:100790000A01E0910201F0910301E90FF11D91E0DE
:1007A000EF31F90708F03A97808380910A018F5F53
:1007B00080930A01E1ECF0E080818062808378948C
:1007C00008950F931F93CF93DF93162F0097A1F0F7
:1007D00020910A0130E0260F311D2A30310574F4D2
:1007E000662371F0EC0100E089910E94C6030F5F5F
:1007F0000117D1F780E005C08FEF03C08EEF01C075
:1008000080E0DF91CF911F910F9108955058BB2741
:10081000AA270ED048C139D130F03ED120F031F4B2
:100820009F3F11F41EF42EC10EF4E095E7FB24C1A6
:10083000E92F4AD180F3BA17620773078407950737
:1008400018F071F49EF562C10EF4E0950B2EBA2FEC
:10085000A02D0B01B90190010C01CA01A0011124C6
:10086000FF27591B99F0593F50F4503E68F11A1672
:10087000F040A22F232F342F4427585FF3CF469503
:1008800037952795A795F0405395C9F77EF41F1625
:10089000BA0B620B730B840BBAF09150A1F0FF0FEF
:1008A000BB1F661F771F881FC2F70EC0BA0F621FDB
:1008B000731F841F48F4879577956795B795F795CB
:1008C0009E3F08F0B3CF9395880F08F09927EE0F5D
:1008D0009795879508950CD0E6C0DED040F0D5D02E
:1008E00030F021F45F3F19F0C7C0511110C1CAC0E8
:1008F000EBD098F39923C9F35523B1F3951B550B0E
:10090000BB27AA2762177307840738F09F5F5F4FE2
:10091000220F331F441FAA1FA9F333D00E2E3AF023
:10092000E0E830D091505040E695001CCAF729D03D
:10093000FE2F27D0660F771F881FBB1F261737078C
:100940004807AB07B0E809F0BB0B802DBF01FF27BC
:1009500093585F4F2AF09E3F510568F08DC0D7C075
:100960005F3FECF3983EDCF3869577956795B795F6
:10097000F7959F5FC9F7880F911D9695879597F911
:100980000895E1E0660F771F881FBB1F621773078A
:100990008407BA0720F0621B730B840BBA0BEE1F9F
:1009A00088F7E095089598D088F09F5790F0B92F78
:1009B0009927B751A0F0D1F0660F771F881F991FB4
:1009C0001AF0BA95C9F712C0B13081F09FD0B1E0EA
:1009D00008959CC0672F782F8827B85F39F0B93FFA
:1009E000CCF3869577956795B395D9F73EF49095B6
:1009F0008095709561957F4F8F4F9F4F0895E89434
:100A000009C097FB3EF490958095709561957F4F56
:100A10008F4F9F4F9923A9F0F92F96E9BB27939504
:100A2000F695879577956795B795F111F8CFFAF414
:100A3000BB0F11F460FF1BC06F5F7F4F8F4F9F4F45
:100A400016C0882311F096E911C0772321F09EE8A3
:100A5000872F762F05C0662371F096E8862F70E009
:100A600060E02AF09A95660F771F881FDAF7880FE3
:100A70009695879597F9089597F99F6780E870E0B4
:100A800060E008959FEF80EC089500240A94161604
:100A9000170618060906089500240A94121613066C
:100AA000140605060895092E0394000C11F48823FA
:100AB00052F0BB0F40F4BF2B11F460FF04C06F5F16
:100AC0007F4F8F4F9F4F089557FD9058440F551FEC
:100AD00059F05F3F71F04795880F97FB991F61F0C0
:100AE0009F3F79F087950895121613061406551F37
:100AF000F2CF4695F1DF08C0161617061806991FA3
:100B0000F1CF86957105610508940895E894BB2797
:100B100066277727CB0197F908950BD0C4CFB5DFAF
:100B200028F0BADF18F0952309F0A6CFABCF112437
:100B3000EECFCADFA0F3959FD1F3950F50E0551F7C
:100B4000629FF001729FBB27F00DB11D639FAA2722
:100B5000F00DB11DAA1F649F6627B00DA11D661F71
:100B6000829F2227B00DA11D621F739FB00DA11D92
:100B7000621F839FA00D611D221F749F3327A00D4C
:100B8000611D231F849F600D211D822F762F6A2FE8
:100B900011249F5750408AF0E1F088234AF0EE0F6D
:100BA000FF1FBB1F661F771F881F91505040A9F77A
:100BB0009E3F510570F060CFAACF5F3FECF3983EA7
:100BC000DCF3869577956795B795F795E7959F5FE1
:100BD000C1F7FE2B880F911D9695879597F908957B
:100BE000A1E21A2EAA1BBB1BFD010DC0AA1FBB1F31
:100BF000EE1FFF1FA217B307E407F50720F0A21BA3
:100C0000B30BE40BF50B661F771F881F991F1A940F
:100C100069F760957095809590959B01AC01BD0139
:080C2000CF010895F894FFCF05
:040C28000B011501A6
:00000001FF
