S014000070726F6A315F72656D6F74652E7372656339
S11300000C9434000C9451000C9451000C94510045
S11300100C9451000C9451000C9451000C94510018
S11300200C9451000C945C020C9451000C945100FB
S11300300C9451000C9451000C9451000C945100F8
S11300400C9451000C9451000C9489000C945300AE
S11300500C9451000C9451000C9451000C945100D8
S11300600C9451000C94510011241FBECFEFD8E022
S1130070DEBFCDBF11E0A0E0B1E0EEE2FAE002C0E5
S113008005900D92AC31B107D9F721E0ACE1B1E0B4
S113009001C01D92AA33B207E1F70E9400020C943A
S11300A015050C9400001F920F920FB60F921124A5
S11300B08F939F93EF93FF9380911D018823D9F031
S11300C080911D01815080931D01E0910201F09106
S11300D0030181918093C600F0930301E093020130
S11300E081E0E433F80760F08AE291E09093030141
S11300F08093020105C0E1ECF0E080818F7D808374
S1130100FF91EF919F918F910F900FBE0F901F90D1
S113011018951F920F920FB60F9211242F938F935D
S11301209F93EF93FF93E0910001F091010180917F
S1130130C600808380910001909101010196909303
S113014001018093000121E08A32920730F080E2BD
S113015091E0909301018093000180911C018A3009
S113016028F480911C018F5F80931C01FF91EF9113
S11301709F918F912F910F900FBE0F901F90189504
S1130180F89420911C012223C1F020911C01E091DC
S11301900001F0910101E21BF10921E0E032F207D4
S11301A008F43A9620911C01215020931C012081CF
S11301B0FC012083789481E00895789480E0089588
S11301C0CF93DF930F92CDB7DEB780911C018823C4
S11301D0E1F3CE0101960E94C00089810F90DF9166
S11301E0CF910895F89490911D01E0910201F0914E
S11301F00301E90FF11D91E0E433F90708F03A97A0
S1130200808380911D018F5F80931D01E1ECF0E0FC
S1130210808180628083789408950F931F93CF9395
S1130220DF93162F0097A1F020911D0130E0260FD7
S1130230311D2A30310574F4662371F0EC0100E0BD
S113024089910E94F2000F5F0117D1F780E005C089
S11302508FEF03C08EEF01C080E0DF91CF911F913B
S11302600F9108950F93FC016283438324830583D4
S1130270EAE7F0E0808186608083ACE7B0E08C91AF
S113028080648C9380818068808380818064808393
S11302900F910895CF92DF92EF92FF92CF93DF9365
S11302A0ECE7F0E02081207F20832081262B20832F
S11302B0EAE7F0E0208120642083208126FDFDCF41
S11302C0EAE7F0E0208120642083208126FDFDCF31
S11302D0613039F4FC012481C281D22FDC1BC20FAE
S11302E00BC0611107C0FC012581C381D22FDC1B27
S11302F0C20F02C0CFE7DFE78091780090917900C8
S113030096958795969587958D1720F0C81708F0D0
S113031059C02BC02D2F30E0B901681B7109882703
S113032077FD8095982F0E9404046B017C016D2F4A
S113033070E080E090E00E9402049B01AC01C701E0
S1130340B6010E946E0320E030E04EEF52E40E94BA
S113035090049B01AC0160E070E08EEF92E40E9497
S113036009030E94D603862F2EC0D0E0BC01772754
S11303706C1B7D0B882777FD8095982F0E940404C1
S11303806B017C016FEF70E06C1B7D0B882777FDA0
S11303908095982F0E9404049B01AC01C701B6010B
S11303A00E946E0320E030E04EEF52E40E9490047D
S11303B020E030E04EEF52E40E940A030E94D6038C
S11303C0862F01C08FE7DF91CF91FF90EF90DF90F0
S11303D0CF900895E0ECF0E0908195FFFDCF8093FD
S11303E0C6000895CF93C82F8A3019F48DE00E9477
S11303F0EA018C2F0E94EA0180E090E0CF910895F9
S1130400CF93DF93CDB7DEB72B970FB6F894DEBF4B
S11304100FBECDBF84E091E0909337018093360105
S113042003E82EE744E062E0CE0101960E94320127
S113043080E895E20E94AC0278940E94A40281E3D1
S113044080931F0186E68F832FEF89E698E1215080
S113045080409040E1F700C0000082E0888780E19E
S1130460898787E28A874F8152E060E177E28B8552
S11304700E94D9028FE493EC0197F1F700C00000C9
S113048011E01887612FCE0101960E944A018987E5
S113049060E0CE0101960E944A018A874F81588507
S11304A06985782F8B850E94D9028FEC97E001979C
S11304B0F1F700C00000E5CF1F920F920FB60F9224
S11304C011242F938F939F93EF93FF9380911F0198
S11304D08A3078F0EDEC8E9FE12D1124E695E695B7
S11304E0E6959E2F990F292F220F220F920F891B19
S11304F001C0E0E090911E0191110BC0429A439813
S1130500F0E0EE5EFE4F808185B981E080931E01AC
S11305100AC0439A4298E82FF0E0EE5EFE4F8081D5
S113052085B910921E01FF91EF919F918F912F91A8
S11305300F900FBE0F901F90189586E08093B10026
S113054081E08093700008958FEF84B987B18C6047
S113055087B90E949D0208959C0140E050E060E24A
S113056071EA87E090E00E94F3042150310930934E
S1130570C5002093C400E1ECF0E088E1808386E0CC
S11305808093C2008081806A8083089570E016168B
S113059017066CF4E82FF92F20E030E080E0919109
S11305A089272F5F3F4F26173707CCF3089580E044
S11305B00895CF93DF93CDB7DEB72C970FB6F89499
S11305C0DEBF0FBECDBF488759876A877B878C877C
S11305D064E0CE0108960E94C6028C878FEF95E5F1
S11305E09A83898385E0FE013896DE011396019093
S11305F00D928A95E1F767E0CE0101960E940D0104
S11306002C960FB6F894DEBF0FBECDBFDF91CF910D
S113061008955058BB27AA270ED048C139D130F0CD
S11306203ED120F031F49F3F11F41EF42EC10EF49C
S1130630E095E7FB24C1E92F4AD180F3BA1762079A
S113064073078407950718F071F49EF562C10EF4E0
S1130650E0950B2EBA2FA02D0B01B90190010C01CE
S1130660CA01A0011124FF27591B99F0593F50F4E6
S1130670503E68F11A16F040A22F232F342F44273E
S1130680585FF3CF469537952795A795F040539536
S1130690C9F77EF41F16BA0B620B730B840BBAF006
S11306A09150A1F0FF0FBB1F661F771F881FC2F771
S11306B00EC0BA0F621F731F841F48F48795779585
S11306C06795B795F7959E3F08F0B3CF9395880F3C
S11306D008F09927EE0F9795879508950CD0E6C0FA
S11306E0DED040F0D5D030F021F45F3F19F0C7C020
S11306F0511110C1CAC0EBD098F39923C9F3552303
S1130700B1F3951B550BBB27AA2762177307840700
S113071038F09F5F5F4F220F331F441FAA1FA9F3B6
S113072033D00E2E3AF0E0E830D091505040E695A8
S1130730001CCAF729D0FE2F27D0660F771F881F09
S1130740BB1F261737074807AB07B0E809F0BB0BF8
S1130750802DBF01FF2793585F4F2AF09E3F51051C
S113076068F08DC0D7C05F3FECF3983EDCF386950C
S113077077956795B795F7959F5FC9F7880F911D92
S11307809695879597F90895E1E0660F771F881F7E
S1130790BB1F621773078407BA0720F0621B730B31
S11307A0840BBA0BEE1F88F7E095089598D088F073
S11307B09F5790F0B92F9927B751A0F0D1F0660F49
S11307C0771F881F991F1AF0BA95C9F712C0B13064
S11307D081F09FD0B1E008959CC0672F782F8827BF
S11307E0B85F39F0B93FCCF3869577956795B395A3
S11307F0D9F73EF490958095709561957F4F8F4F12
S11308009F4F0895E89409C097FB3EF49095809516
S1130810709561957F4F8F4F9F4F9923A9F0F92FC2
S113082096E9BB279395F695879577956795B79540
S1130830F111F8CFFAF4BB0F11F460FF1BC06F5F26
S11308407F4F8F4F9F4F16C0882311F096E911C038
S1130850772321F09EE8872F762F05C0662371F059
S113086096E8862F70E060E02AF09A95660F771F6D
S1130870881FDAF7880F9695879597F9089597F961
S11308809F6780E870E060E008959FEF80EC089532
S113089000240A941616170618060906089500245B
S11308A00A9412161306140605060895092E0394D5
S11308B0000C11F4882352F0BB0F40F4BF2B11F449
S11308C060FF04C06F5F7F4F8F4F9F4F089557FDA8
S11308D09058440F551F59F05F3F71F04795880FAA
S11308E097FB991F61F09F3F79F087950895121641
S11308F013061406551FF2CF4695F1DF08C01616ED
S113090017061806991FF1CF86957105610508949D
S11309100895E894BB2766277727CB0197F90895B4
S11309200BD0C4CFB5DF28F0BADF18F0952309F057
S1130930A6CFABCF1124EECFCADFA0F3959FD1F39E
S1130940950F50E0551F629FF001729FBB27F00D79
S1130950B11D639FAA27F00DB11DAA1F649F6627CE
S1130960B00DA11D661F829F2227B00DA11D621F1D
S1130970739FB00DA11D621F839FA00D611D221FD7
S1130980749F3327A00D611D231F849F600D211DBB
S1130990822F762F6A2F11249F5750408AF0E1F05E
S11309A088234AF0EE0FFF1FBB1F661F771F881FA7
S11309B091505040A9F79E3F510570F060CFAACFE7
S11309C05F3FECF3983EDCF3869577956795B79592
S11309D0F795E7959F5FC1F7FE2B880F911D9695BC
S11309E0879597F90895A1E21A2EAA1BBB1BFD0156
S11309F00DC0AA1FBB1FEE1FFF1FA217B307E407FA
S1130A00F50720F0A21BB30BE40BF50B661F771F51
S1130A10881F991F1A9469F7609570958095909531
S1110A209B01AC01BD01CF010895F894FFCFF6
S1130A2E20012A010000000200000000F201000073
S10F0A3E0000C0F9A4B0999282F88090E6
S9030000FC
