:100000000C9434000C9451000C9451000C94510049
:100010000C9451000C9451000C9451000C9451001C
:100020000C9451000C94A7010C9451000C945100B5
:100030000C9451000C9451000C9451000C945100FC
:100040000C9451000C9451000C947D030C943F03CC
:100050000C9451000C9451000C9451000C945100DC
:100060000C9451000C94510011241FBECFEFD8E026
:10007000DEBFCDBF11E0A0E0B1E0EEE5FCE002C0E4
:1000800005900D92AC31B107D9F721E0ACE1B1E0B8
:1000900001C01D92A83FB207E1F70E9429010C940C
:1000A0002D060C9400000F93FC016283438324838C
:1000B0000583EAE7F0E0808186608083ACE7B0E00A
:1000C0008C9180648C93808180688083808180643F
:1000D00080830F910895CF92DF92EF92FF92CF939A
:1000E000DF93ECE7F0E02081207F20832081262B26
:1000F0002083EAE7F0E0208120642083208126FD30
:10010000FDCFEAE7F0E0208120642083208126FDF6
:10011000FDCF613039F4FC012481C281D22FDC1B78
:10012000C20F0BC0611107C0FC012581C381D22F12
:10013000DC1BC20F02C0CFE7DFE78091780090910F
:10014000790096958795969587958D1720F0C81715
:1001500008F059C02BC02D2F30E0B901681B710980
:10016000882777FD8095982F0E941C056B017C01E4
:100170006D2F70E080E090E00E941A059B01AC01B9
:10018000C701B6010E94860420E030E04EEF52E441
:100190000E94A8059B01AC0160E070E08EEF92E444
:1001A0000E9421040E94EE04862F2EC0D0E0BC01E4
:1001B00077276C1B7D0B882777FD8095982F0E94F1
:1001C0001C056B017C016FEF70E06C1B7D0B8827B9
:1001D00077FD8095982F0E941C059B01AC01C701FB
:1001E000B6010E94860420E030E04EEF52E40E9407
:1001F000A80520E030E04EEF52E40E9422040E9465
:10020000EE04862F01C08FE7DF91CF91FF90EF9032
:10021000DF90CF9008953C9A449A08953C9A88B113
:10022000807E88B90895E0ECF0E0908195FFFDCFE5
:100230008093C6000895CF93C82F8A3019F48DE0BB
:100240000E9413018C2F0E94130180E090E0CF9157
:100250000895CF93DF93CDB7DEB72C970FB6F89400
:10026000DEBF0FBECDBF80E091E09093F50180939B
:10027000F40103E82EE744E062E0CE0101960E941B
:10028000530080E895E20E94000278940E94EF01FA
:100290001092250186E68F836EE071E08BE091E09D
:1002A0000E94F7010E940B012FEF89E698E121508F
:1002B00080409040E1F700C0000082E0888780E144
:1002C000898787E28A874F8152E060E177E28B85F8
:1002D0000E949F028FE493EC0197F1F700C00000A9
:1002E0001C8611E007E01887612FCE0101960E945D
:1002F0006B00898760E0CE0101960E946B008A87BF
:100300004F8158856985782F8B850E949F028C8547
:100310008F5F8C878C85823398F08FE097E201970E
:10032000F1F700C0000008876EE170E0CE0107968B
:100330000E94CF028F3F19F08985809325011C868A
:100340008FE697E10197F1F700C00000CCCF1F9234
:100350000F920FB60F9211242F938F939F93EF93C9
:10036000FF93809125018A3078F0EDEC8E9FE12D8E
:100370001124E695E695E6959E2F990F292F220FD9
:10038000220F920F891B01C0E0E090911C01911196
:100390000BC0429A4398F0E0EE5EFE4F808185B933
:1003A00081E080931C010AC0439A4298E82FF0E054
:1003B000EE5EFE4F808185B910921C01FF91EF9196
:1003C0009F918F912F910F900FBE0F901F901895B6
:1003D00086E08093B10081E08093700008958FEFF4
:1003E00084B987B18C6087B90E94E8010895909321
:1003F00027018093260170932901609328010895B5
:100400009C0140E050E060E271EA87E090E00E94E9
:100410000B06215031093093C5002093C400E1EC54
:10042000F0E088E1808386E08093C2008081806A6A
:100430008083089570E0161617066CF4E82FF92FE4
:1004400020E030E080E0919189272F5F3F4F261711
:100450003707CCF3089580E008951F93CF93DF937F
:1004600000D000D01F92CDB7DEB7182F80932201A5
:1004700095E0EEE1F1E0ADE1B1E001900D929A95E9
:10048000E1F780911D01863689F464E08DE191E009
:100490000E941A0218130AC085E0EDE1F1E0DE01C6
:1004A000119601900D928A95E1F701C01982298178
:1004B0003A814B815C816D8170E080E090E00F902B
:1004C0000F900F900F900F90DF91CF911F91089593
:1004D000CF93DF93CDB7DEB72B970FB6F894DEBF7F
:1004E0000FBECDBF14C08E810E942D022F8338878E
:1004F00049875A876B87222351F085E0FE013796A2
:10050000DE01119601900D928A95E1F707C0CE01A8
:1005100006960E94B5038111E6CF198229813A819E
:100520004B815C816D8170E080E090E02B960FB68E
:10053000F894DEBF0FBECDBFDF91CF910895CF936A
:10054000DF93CDB7DEB72C970FB6F894DEBF0FBEA2
:10055000CDBF488759876A877B878C8764E0CE0147
:1005600008960E941A028C878FEF95E59A838983FB
:1005700085E0FE013896DE01139601900D928A9572
:10058000E1F767E0CE0101960E94F6032C960FB6C4
:10059000F894DEBF0FBECDBFDF91CF910895CF920B
:1005A000DF92EF92FF920F931F93CF93DF9300D0D0
:1005B00000D01F92CDB7DEB76C017B0185E0F6015C
:1005C000DE01119601900D928A95E1F7F6015181B5
:1005D0004081498350685A836B817C818D810E9460
:1005E0009F020E941C048FE99FE00197F1F700C071
:1005F0000000E0912801F0912901309709F0099558
:100600001E141F0424F500E010E00E9468022983F4
:100610003A834B835C836D83222371F0F6018181E1
:1006200083130AC085E0FE013196D60101900D9238
:100630008A95E1F780E015C08FEC97E00197F1F71C
:1006400000C000000F5F1F4F0E151F05F1F6E0916F
:100650002601F0912701309719F009958FEF01C01D
:100660008FEF0F900F900F900F900F90DF91CF9121
:100670001F910F91FF90EF90DF90CF9008951F9200
:100680000F920FB60F9211242F938F939F93EF9396
:10069000FF9380912401882309F1809124018150E6
:1006A00080932401E0911001F091110180818093E9
:1006B000C6008091100190911101019621E0823FC6
:1006C000920728F490931101809310010CC08EE8DA
:1006D00091E0909311018093100105C0E1ECF0E0EE
:1006E00080818F7D8083FF91EF919F918F912F91DA
:1006F0000F900FBE0F901F9018951F920F920FB67C
:100700000F9211242F938F939F93EF93FF93E09178
:100710000E01F0910F018091C600808380910E013F
:1007200090910F01019621E08E38920728F4909362
:100730000F0180930E0106C08AE291E090930F01B1
:1007400080930E0180912301843628F48091230147
:100750008F5F80932301FF91EF919F918F912F9154
:100760000F900FBE0F901F901895F89420912301C1
:100770002223C9F020912301E0910E01F0910F0195
:10078000E21BF10921E0EA32F20710F4EC59FF4FC5
:10079000209123012150209323012081FC012083FB
:1007A000789481E00895789480E00895F894909189
:1007B00024019436C8F490912401E0911001F09145
:1007C0001101E90FF11D91E0E23FF90710F0E45645
:1007D000F1098083809124018F5F80932401E1ECF3
:1007E000F0E0808180628083789408950F931F9356
:1007F000CF93DF93062F009799F02091240130E0EA
:10080000260F311D243631056CF4662369F0EC01A6
:1008100010E089910E94D6031F5F1013FACF06C023
:100820008FEF05C08EEF03C080E001C080E0DF9154
:10083000CF911F910F910895809124018111FCCFD8
:1008400008955058BB27AA270ED048C139D130F09F
:100850003ED120F031F49F3F11F41EF42EC10EF46E
:10086000E095E7FB24C1E92F4AD180F3BA1762076C
:1008700073078407950718F071F49EF562C10EF4B2
:10088000E0950B2EBA2FA02D0B01B90190010C01A0
:10089000CA01A0011124FF27591B99F0593F50F4B8
:1008A000503E68F11A16F040A22F232F342F442710
:1008B000585FF3CF469537952795A795F040539508
:1008C000C9F77EF41F16BA0B620B730B840BBAF0D8
:1008D0009150A1F0FF0FBB1F661F771F881FC2F743
:1008E0000EC0BA0F621F731F841F48F48795779557
:1008F0006795B795F7959E3F08F0B3CF9395880F0E
:1009000008F09927EE0F9795879508950CD0E6C0CB
:10091000DED040F0D5D030F021F45F3F19F0C7C0F1
:10092000511110C1CAC0EBD098F39923C9F35523D4
:10093000B1F3951B550BBB27AA27621773078407D2
:1009400038F09F5F5F4F220F331F441FAA1FA9F388
:1009500033D00E2E3AF0E0E830D091505040E6957A
:10096000001CCAF729D0FE2F27D0660F771F881FDB
:10097000BB1F261737074807AB07B0E809F0BB0BCA
:10098000802DBF01FF2793585F4F2AF09E3F5105EE
:1009900068F08DC0D7C05F3FECF3983EDCF38695DE
:1009A00077956795B795F7959F5FC9F7880F911D64
:1009B0009695879597F90895E1E0660F771F881F50
:1009C000BB1F621773078407BA0720F0621B730B03
:1009D000840BBA0BEE1F88F7E095089598D088F045
:1009E0009F5790F0B92F9927B751A0F0D1F0660F1B
:1009F000771F881F991F1AF0BA95C9F712C0B13036
:100A000081F09FD0B1E008959CC0672F782F882790
:100A1000B85F39F0B93FCCF3869577956795B39574
:100A2000D9F73EF490958095709561957F4F8F4FE3
:100A30009F4F0895E89409C097FB3EF490958095E8
:100A4000709561957F4F8F4F9F4F9923A9F0F92F94
:100A500096E9BB279395F695879577956795B79512
:100A6000F111F8CFFAF4BB0F11F460FF1BC06F5FF8
:100A70007F4F8F4F9F4F16C0882311F096E911C00A
:100A8000772321F09EE8872F762F05C0662371F02B
:100A900096E8862F70E060E02AF09A95660F771F3F
:100AA000881FDAF7880F9695879597F9089597F933
:100AB0009F6780E870E060E008959FEF80EC089504
:100AC00000240A941616170618060906089500242D
:100AD0000A9412161306140605060895092E0394A7
:100AE000000C11F4882352F0BB0F40F4BF2B11F41B
:100AF00060FF04C06F5F7F4F8F4F9F4F089557FD7A
:100B00009058440F551F59F05F3F71F04795880F7B
:100B100097FB991F61F09F3F79F087950895121612
:100B200013061406551FF2CF4695F1DF08C01616BE
:100B300017061806991FF1CF86957105610508946F
:100B40000895E894BB2766277727CB0197F9089586
:100B50000BD0C4CFB5DF28F0BADF18F0952309F029
:100B6000A6CFABCF1124EECFCADFA0F3959FD1F370
:100B7000950F50E0551F629FF001729FBB27F00D4B
:100B8000B11D639FAA27F00DB11DAA1F649F6627A0
:100B9000B00DA11D661F829F2227B00DA11D621FEF
:100BA000739FB00DA11D621F839FA00D611D221FA9
:100BB000749F3327A00D611D231F849F600D211D8D
:100BC000822F762F6A2F11249F5750408AF0E1F030
:100BD00088234AF0EE0FFF1FBB1F661F771F881F79
:100BE00091505040A9F79E3F510570F060CFAACFB9
:100BF0005F3FECF3983EDCF3869577956795B79564
:100C0000F795E7959F5FC1F7FE2B880F911D96958D
:100C1000879597F90895A1E21A2EAA1BBB1BFD0127
:100C20000DC0AA1FBB1FEE1FFF1FA217B307E407CB
:100C3000F50720F0A21BB30BE40BF50B661F771F23
:100C4000881F991F1A9469F7609570958095909503
:0E0C50009B01AC01BD01CF010895F894FFCFC8
:100C5E0000000002000000001B01000000002A013D
:0C0C6E008E01C0F9A4B0999282F8809029
:00000001FF
