S014000070726F6A315F72656D6F74652E7372656339
S11300000C9434000C9451000C94F2020C945100A2
S11300100C9451000C9451000C9451000C94510018
S11300200C9451000C94A2020C9451000C945100B5
S11300300C9451000C9424030C9451000C94510022
S11300400C9476010C9451000C94D7040C949904EC
S11300500C9451000C9451000C9451000C945100D8
S11300600C9451000C94510011241FBECFEFD8E022
S1130070DEBFCDBF11E0A0E0B1E0E8E7FFE002C0E1
S113008005900D92AC31B107D9F721E0ACE1B1E0B4
S113009001C01D92AC3FB207E1F70E94BB010C9472
S11300A0BA070C9400000F93FC01628343832483FA
S11300B005831682EAE7F0E0808186608083ACE7FE
S11300C0B0E08C9180648C9380818068808380818F
S11300D0806480830F910895CF92DF92EF92FF9214
S11300E0CF93DF93ECE7F0E02081207F2083208111
S11300F0262B2083EAE7F0E02081206420832081FE
S113010026FDFDCFEAE7F0E02081206420832081F2
S113011026FDFDCF613039F4FC012481C281D22F48
S1130120DC1BC20F0BC0611107C0FC012581C38118
S1130130D22FDC1BC20F02C0CFE7DFE7809178002B
S11301409091790096958795969587958D1720F0CF
S1130150C81708F059C02BC02D2F30E0B901681B17
S11301607109882777FD8095982F0E9485066B0179
S11301707C016D2F70E080E090E00E9483069B017B
S1130180AC01C701B6010E94EF0520E030E04EEF5C
S113019052E40E9435079B01AC0160E070E08EEFF1
S11301A092E40E9486050E945706862F2EC0D0E056
S11301B0BC0177276C1B7D0B882777FD8095982FD2
S11301C00E9485066B017C016FEF70E06C1B7D0B58
S11301D0882777FD8095982F0E9485069B01AC01A6
S11301E0C701B6010E94EF0520E030E04EEF52E473
S11301F00E94350720E030E04EEF52E40E9487056C
S11302000E945706862F01C08FE7DF91CF91FF90A0
S1130210EF90DF90CF9008953C9A449A08953C9AC9
S113022088B1807E88B90895E0ECF0E0908195FF74
S1130230FDCF8093C6000895CF93C82F8A3019F458
S11302408DE00E9414018C2F0E94140180E090E044
S1130250CF910895ECE7F0E08081806C80838FE19A
S11302609EE40197F1F700C000008081807F8083C5
S1130270808185608083EAE7F0E080818064808308
S1130280808186FDFDCFEAE7F0E080818064808391
S1130290808186FDFDCF6091780070917900ECE754
S11302A0F0E080818F7780838FE19EE40197F1F7FE
S11302B000C00000769567957695679570E080E0BC
S11302C090E00E94830620E030E04FE753E40E9470
S11302D0EF0523E333E343E85FE30E9435072DECA6
S11302E03CEC4CEA50E40E94350708951F920F92AB
S11302F00FB60F9211242F933F934F935F936F93F5
S11303007F938F939F93AF93BF93EF93FF938091CA
S11303101C0190911D01019690931D0180931C0175
S1130320893C910588F00E942A0123E333E343E5E5
S113033050E40E94EB05882314F45A9A01C05A9899
S113034010921D0110921C01FF91EF91BF91AF918A
S11303509F918F917F916F915F914F913F912F91D9
S11303600F900FBE0F901F90189585E085BD81E01A
S113037080936E000895CF93DF93CDB7DEB72D97AA
S11303800FB6F894DEBF0FBECDBF80E091E090932E
S1130390F9018093F80106E921E946E066E0CE011F
S11303A001960E94530080E895E20E94510386E67C
S11303B088876FE071E08CE091E00E9448030E941E
S11303C00C010E94100378940E94EA02529A0E943F
S11303D0B501109229011D863D988AB18AB95E9AA9
S11303E00F2EF3E0FF2EF02D11E00F2EF7E0EF2E8D
S11303F0F02D02E00F2EF8E8AF2EF02D0F2EF3E1D2
S1130400BF2EF02D6894CC24C4F80F2EF7E2DF2E13
S1130410F02D4E993EC0F98648855F2D6A857B850F
S11304208C850E94F0038FE39CE90197F1F700C0EB
S11304300000488559856A857B858C850E94F00378
S11304408FE39CE90197F1F700C0000048855985C6
S11304506A857B858C850E94F0038FE39CE9019774
S1130460F1F700C00000488559856A857B858C8535
S11304700E94F0038FE39CE90197F1F700C00000AC
S1130480488559856A857B858C850E94F0030E9486
S113049014031987612FCE0101960E946C008A878C
S11304A060E0CE0101960E946C008B879A859F378D
S11304B049F48F3739F48F81813039F01F830E94DA
S11304C0FC0203C00E9403031F82488559856A8584
S11304D07B858C850E94F0038D858F5F8D878D854C
S11304E08A3019F08431A1F026C08FE697E1019794
S11304F0F1F700C00000E98664E170E0CE010896DF
S11305000E9420048F3FB9F08A858093290113C08B
S11305105D9A4D9903C08C2D9D2D02C08A2D9B2D73
S11305200987682F8A879B874885502F792F8C8568
S11305300E94F0031D868FE697E10197F1F700C052
S1130540000067CF1F920F920FB60F9211242F93C2
S11305508F939F93EF93FF93809129018A3078F0D2
S1130560EDEC8E9FE12D1124E695E695E6959E2F00
S1130570990F292F220F220F920F891B01C0E0E04F
S113058090911E0191110BC0429A4398F0E0EE5EE7
S1130590FE4F808185B981E080931E010AC0439A91
S11305A04298E82FF0E0EE5EFE4F808185B910920C
S11305B01E01FF91EF919F918F912F910F900FBE8C
S11305C00F901F90189584E08093B10081E0809390
S11305D0700008958FEF84B987B18C6087B90E9449
S11305E0E30208951F920F920FB60F9211240F90F9
S11305F00FBE0F901F90189585E08093810081E0D5
S113060080936F0008951092850010928400E1E8B1
S1130610F0E080818B7F808380818E7F808308954A
S113062053985B9AE99A089588B1837F88B983B710
S1130630817F846083BF83B7816083BF789488950A
S113064083B78E7F83BF08951F920F920FB60F92C8
S113065011242F933F934F935F936F937F938F93C3
S11306609F93AF93BF93EF93FF930E941403FF9163
S1130670EF91BF91AF919F918F917F916F915F9116
S11306804F913F912F910F900FBE0F901F9018958F
S113069090932B0180932A0170932D0160932C0178
S11306A008959C0140E050E060E271EA87E090E048
S11306B00E949807215031093093C5002093C4004B
S11306C0E1ECF0E088E1808386E08093C2008081E1
S11306D0806A8083089570E0161617066CF4E82F7C
S11306E0F92F20E030E080E0919189272F5F3F4F80
S11306F026173707CCF3089580E008951F93CF930E
S1130700DF9300D000D01F92CDB7DEB7182F8093AF
S1130710240195E0E0E2F1E0AFE1B1E001900D9257
S11307209A95E1F780911F01863689F464E08FE1A0
S113073091E00E946B0318130AC085E0EFE1F1E039
S1130740DE01119601900D928A95E1F701C019829C
S113075029813A814B815C816D8170E080E090E079
S11307600F900F900F900F900F90DF91CF911F91EA
S11307700895CF93DF93CDB7DEB72B970FB6F894D8
S1130780DEBF0FBECDBF14C08E810E947E032F83B7
S1130790388749875A876B87222351F085E0FE0109
S11307A03796DE01119601900D928A95E1F707C004
S11307B0CE0106960E940F058111E6CF1982298188
S11307C03A814B815C816D8170E080E090E02B96F2
S11307D00FB6F894DEBF0FBECDBFDF91CF91089561
S11307E0CF93DF93CDB7DEB72C970FB6F894DEBF67
S11307F00FBECDBF488759876A877B878C8764E0A3
S1130800CE0108960E946B038C878FEF95E59A833F
S1130810898385E0FE013896DE01139601900D92DE
S11308208A95E1F767E0CE0101960E944D052C966A
S11308300FB6F894DEBF0FBECDBFDF91CF91089500
S1130840CF92DF92EF92FF920F931F93CF93DF9398
S113085000D000D01F92CDB7DEB76C017B0185E0DC
S1130860F601DE01119601900D928A95E1F7F601E9
S113087051814081498350685A836B817C818D8189
S11308800E94F0030E9473058FE99FE00197F1F73E
S113089000C00000E0912C01F0912D01309709F087
S11308A009951E141F045CF500E010E00E94B903D2
S11308B029833A834B835C836D832223A9F0F60159
S11308C08181831311C085E0FE013196D601019028
S11308D00D928A95E1F7E0912A01F0912B0130976E
S11308E0B9F0099580E017C08FEC97E00197F1F714
S11308F000C000000F5F1F4F0E151F05B9F6E091F1
S11309002A01F0912B01309729F009958FEF03C04C
S113091080E001C08FEF0F900F900F900F900F9019
S1130920DF91CF911F910F91FF90EF90DF90CF90C7
S113093008951F920F920FB60F9211242F938F9345
S11309409F93EF93FF9380912801882309F180916D
S11309502801815080932801E0911001F091110148
S113096080818093C60080911001909111010196BD
S113097021E0863F920728F490931101809310019F
S11309800CC082E991E0909311018093100105C09D
S1130990E1ECF0E080818F7D8083FF91EF919F9166
S11309A08F912F910F900FBE0F901F9018951F924B
S11309B00F920FB60F9211242F938F939F93EF935F
S11309C0FF93E0910E01F0910F018091C6008083A6
S11309D080910E0190910F01019621E082399207D6
S11309E028F490930F0180930E0106C08EE291E0EB
S11309F090930F0180930E0180912701843628F48F
S1130A00809127018F5F80932701FF91EF919F9140
S1130A108F912F910F900FBE0F901F9018952091DA
S1130A2027012223C1F020912701E0910E01F091CA
S1130A300F01E21BF10921E0EE32F20710F4EC5948
S1130A40FF4F209127012150209327012081FC0191
S1130A50208381E0089580E00895F894909128011E
S1130A609436C8F490912801E0911001F09111019D
S1130A70E90FF11D91E0E63FF90710F0E456F109A2
S1130A808083809128018F5F80932801E1ECF0E05E
S1130A90808180628083789408950F931F93CF930D
S1130AA0DF93062F009799F02091280130E0260F5C
S1130AB0311D243631056CF4662369F0EC0110E035
S1130AC089910E942D051F5F1013FACF06C08FEF86
S1130AD005C08EEF03C080E001C080E0DF91CF91BC
S1130AE01F910F9108958091C10085FF0EC0E1EC24
S1130AF0F0E08091250190912601019690932601C2
S1130B0080932501808185FDF4CF08955058BB273B
S1130B10AA270ED070C161D130F066D120F031F433
S1130B209F3F11F41EF456C10EF4E095E7FB4CC14F
S1130B30E92F72D180F3BA17620773078407950708
S1130B4018F071F49EF58AC10EF4E0950B2EBA2FBD
S1130B50A02D0B01B90190010C01CA01A0011124BF
S1130B60FF27591B99F0593F50F4503E68F11A166B
S1130B70F040A22F232F342F4427585FF3CF4695FC
S1130B8037952795A795F0405395C9F77EF41F161E
S1130B90BA0B620B730B840BBAF09150A1F0FF0FE8
S1130BA0BB1F661F771F881FC2F70EC0BA0F621FD4
S1130BB0731F841F48F4879577956795B795F795C4
S1130BC09E3F08F0B3CF9395880F08F09927EE0F56
S1130BD0979587950895D4D008F481E008950CD0B2
S1130BE00AC102D140F0F9D030F021F45F3F19F08E
S1130BF0EBC0511134C1EEC00FD198F39923C9F35E
S1130C005523B1F3951B550BBB27AA27621773070E
S1130C10840738F09F5F5F4F220F331F441FAA1FC2
S1130C20A9F333D00E2E3AF0E0E830D09150504082
S1130C30E695001CCAF729D0FE2F27D0660F771F30
S1130C40881FBB1F261737074807AB07B0E809F012
S1130C50BB0B802DBF01FF2793585F4F2AF09E3FA7
S1130C60510568F0B1C0FBC05F3FECF3983EDCF384
S1130C70869577956795B795F7959F5FC9F7880F20
S1130C80911D9695879597F90895E1E0660F771F72
S1130C90881FBB1F621773078407BA0720F0621B03
S1130CA0730B840BBA0BEE1F88F7E0950895BCD044
S1130CB088F09F5790F0B92F9927B751A0F0D1F041
S1130CC0660F771F881F991F1AF0BA95C9F712C0CB
S1130CD0B13081F0C3D0B1E00895C0C0672F782F40
S1130CE08827B85F39F0B93FCCF386957795679537
S1130CF0B395D9F73EF490958095709561957F4FA3
S1130D008F4F9F4F0895E89409C097FB3EF4909548
S1130D108095709561957F4F8F4F9F4F9923A9F0D0
S1130D20F92F96E9BB279395F6958795779567955F
S1130D30B795F111F8CFFAF4BB0F11F460FF1BC0A3
S1130D406F5F7F4F8F4F9F4F16C0882311F096E936
S1130D5011C0772321F09EE8872F762F05C06623E4
S1130D6071F096E8862F70E060E02AF09A95660F9D
S1130D70771F881FDAF7880F9695879597F9089556
S1130D80990F0008550FAA0BE0E8FEEF1616170698
S1130D90E807F907C0F012161306E407F50798F000
S1130DA0621B730B840B950B39F40A2661F0232B19
S1130DB0242B252B21F408950A2609F4A140A69595
S1130DC08FEF811D811D089597F99F6780E870E07A
S1130DD060E008959FEF80EC089500240A941616AD
S1130DE0170618060906089500240A941216130615
S1130DF0140605060895092E0394000C11F48823A3
S1130E0052F0BB0F40F4BF2B11F460FF04C06F5FBE
S1130E107F4F8F4F9F4F089557FD9058440F551F94
S1130E2059F05F3F71F04795880F97FB991F61F068
S1130E309F3F79F087950895121613061406551FDF
S1130E40F2CF4695F1DF08C0161617061806991F4B
S1130E50F1CF86957105610508940895E894BB2740
S1130E6066277727CB0197F908950BD0C4CFB5DF58
S1130E7028F0BADF18F0952309F0A6CFABCF1124E0
S1130E80EECFCADFA0F3959FD1F3950F50E0551F25
S1130E90629FF001729FBB27F00DB11D639FAA27CB
S1130EA0F00DB11DAA1F649F6627B00DA11D661F1A
S1130EB0829F2227B00DA11D621F739FB00DA11D3B
S1130EC0621F839FA00D611D221F749F3327A00DF5
S1130ED0611D231F849F600D211D822F762F6A2F91
S1130EE011249F5750408AF0E1F088234AF0EE0F16
S1130EF0FF1FBB1F661F771F881F91505040A9F723
S1130F009E3F510570F060CFAACF5F3FECF3983E4F
S1130F10DCF3869577956795B795F795E7959F5F89
S1130F20C1F7FE2B880F911D9695879597F9089523
S1130F30A1E21A2EAA1BBB1BFD010DC0AA1FBB1FD9
S1130F40EE1FFF1FA217B307E407F50720F0A21B4B
S1130F50B30BE40BF50B661F771F881F991F1A94B8
S1130F6069F760957095809590959B01AC01BD01E2
S10B0F70CF010895F894FFCFAE
S1130F7800000002000000001C01000000002E0117
S10F0F889201C0F9A4B0999282F8809004
S9030000FC
