S00D000074657374312E7372656326
S113000012C02AC029C028C027C026C025C0ABC042
S113001071C022C021C020C01FC01EC01DC01CC092
S11300201BC01AC019C011241FBECFEDCDBF10E0F4
S1130030A0E6B0E0EEEAF5E002C005900D92AE361F
S1130040B107D9F720E0AEE6B0E001C01D92A438B4
S1130050B207E1F71DD0A9C2D3CFBC0180E090E084
S113006016D29B01AC0160E074E284EF98E476D18F
S113007020E030E040E85FE30CD1D8D172B969B92F
S113008088E18AB986E083B98AB1806A8AB9089519
S113009082E081BB8FEF87BBC09AC19A789480E8D5
S11300A095E2DBDF6894FF24F4F800E210E4D0E882
S11300B0AED0C82F69E084E690E0C6D08C2FADD0D6
S11300C0C13611F4D8BB0FC0C33711F418BB0BC031
S11300D0C43611F408BB07C0C63611F4F8BA03C01D
S11300E0C03209F418BA8FE99FE00197F1F700C014
S11300F00000DECF1F920F920FB60F9211242F93A0
S11301008F939F93EF93FF9380916F00882301F166
S113011080916F00815080936F00E0916200F091B4
S1130120630080818CB98091620090916300019694
S113013020E08438920728F490936300809362004F
S113014008C08AE790E0909363008093620001C046
S11301505598FF91EF919F918F912F910F900FBE22
S11301600F901F9018951F920F920FB60F921124A3
S11301702F938F939F93EF93FF93E0916000F091FF
S113018061008CB180838091600090916100019640
S113019020E08A37920728F49093610080936000EE
S11301A006C080E790E090936100809360008091A6
S11301B06E008A3028F480916E008F5F80936E0009
S11301C0FF91EF919F918F912F910F900FBE0F9000
S11301D01F901895F89480916E008823A9F080915F
S11301E06E00E0916000F0916100E81BF10980E08D
S11301F0E037F80708F43A9680916E0081508093B6
S11302006E0080817894089578948FEF089580919A
S11302106E008823E1F3DEDF0895F89490916F0077
S1130220E0916200F0916300E90FF11D90E0E43881
S1130230F90708F03A97808380916F008F5F80936D
S11302406F00559A789408950F931F93CF93DF937B
S1130250062F009791F020916F0030E0260F311D9A
S11302602A30310564F4662361F0EC0110E08991D1
S1130270D4DF1F5F1013FBCF06C08FEF05C08EEFD6
S113028003C080E001C080E0DF91CF911F910F9106
S113029008955058BB27AA270ED04DC13ED130F047
S11302A043D120F031F49F3F11F41EF433C10EF416
S11302B0E095E7FB29C1E92F4FD180F3BA17620714
S11302C073078407950718F071F49EF567C10EF45F
S11302D0E0950B2EBA2FA02D0B01B90190010C0152
S11302E0CA01A0011124FF27591B99F0593F50F46A
S11302F0503E68F11A16F040A22F232F342F4427C2
S1130300585FF3CF469537952795A795F0405395B9
S1130310C9F77EF41F16BA0B620B730B840BBAF089
S11303209150A1F0FF0FBB1F661F771F881FC2F7F4
S11303300EC0BA0F621F731F841F48F48795779508
S11303406795B795F7959E3F08F0B3CF9395880FBF
S113035008F09927EE0F9795879508950CD0EBC078
S1130360E3D040F0DAD030F021F45F3F19F0CCC094
S1130370511115C1CFC0F0D098F39923C9F3552377
S1130380B1F3951B550BBB27AA2762177307840784
S113039038F09F5F5F4F220F331F441FAA1FA9F33A
S11303A033D00E2E3AF0E0E830D091505040E6952C
S11303B0001CCAF729D0FE2F27D0660F771F881F8D
S11303C0BB1F261737074807AB07B0E809F0BB0B7C
S11303D0802DBF01FF2793585F4F2AF09E3F5105A0
S11303E068F092C0DCC05F3FECF3983EDCF3869586
S11303F077956795B795F7959F5FC9F7880F911D16
S11304009695879597F90895E1E0660F771F881F01
S1130410BB1F621773078407BA0720F0621B730BB4
S1130420840BBA0BEE1F88F7E095089504D0689406
S1130430B111B5C0089598D088F09F5790F0B92FA6
S11304409927B751A0F0D1F0660F771F881F991F25
S11304501AF0BA95C9F712C0B13081F09FD0B1E05B
S113046008959CC0672F782F8827B85F39F0B93F6B
S1130470CCF3869577956795B395D9F73EF4909527
S11304808095709561957F4F8F4F9F4F0895E894A5
S113049009C097FB3EF490958095709561957F4FC8
S11304A08F4F9F4F9923A9F0F92F96E9BB27939576
S11304B0F695879577956795B795F111F8CFFAF486
S11304C0BB0F11F460FF1BC06F5F7F4F8F4F9F4FB7
S11304D016C0882311F096E911C0772321F09EE815
S11304E0872F762F05C0662371F096E8862F70E07B
S11304F060E02AF09A95660F771F881FDAF7880F55
S11305009695879597F9089597F99F6780E870E025
S113051060E008959FEF80EC089500240A94161675
S1130520170618060906089500240A9412161306DD
S1130530140605060895092E0394000C11F488236B
S113054052F0BB0F40F4BF2B11F460FF04C06F5F87
S11305507F4F8F4F9F4F089557FD9058440F551F5D
S113056059F05F3F71F04795880F97FB991F61F031
S11305709F3F79F087950895121613061406551FA8
S1130580F2CF4695F1DF08C0161617061806991F14
S1130590F1CF86957105610508940895E894BB2709
S11105A066277727CB0197F90895F894FFCFCB
S11105AE70007A0048656C6C6F21210A0D0004
S9030000FC
