S0160000726F626F745F6669726D776172652E737265632C
S11300000C9475000C9492000C9492000C94920041
S11300100C9492000C9492000C9492000C94920014
S11300200C9492000C9492000C9492000C94920004
S11300300C9492000C9492000C9492000C949200F4
S11300400C9492000C9492000C9434040C94F603D7
S11300500C9492000C9492000C9492000C949200D4
S11300600C9492000C94920007634236B79BD8A775
S11300701A39685618AEBAAB558C1D3CB7CC5763C9
S1130080BD6DEDFD753EF6177231BF000000803F77
S113009008000000BE922449123EABAAAA2ABECD93
S11300A0CCCC4C3E00000080BEABAAAAAA3E000005
S11300B00000BF000000803F0000000000084178FD
S11300C0D3BB4387D1133D190E3CC3BD4282AD2B34
S11300D03E68EC8276BED98FE1A93E4C80EFFFBE2C
S11300E001C4FF7F3F000000000011241FBECFEFBA
S11300F0D8E0DEBFCDBF11E0A0E0B1E0E8E3F6E177
S113010002C005900D92AA31B107D9F721E0AAE106
S1130110B1E001C01D92A63FB207E1F70E94A4011D
S11301200C941A0B0C9400008AB180668AB984B5C9
S1130130816A84BD85B5846085BD16BC17BC18BCB6
S113014008956F927F928F929F92AF92BF92CF92B7
S1130150DF92EF92FF920F931F93CF93DF93EC0103
S1130160762E69017A016880062D112707FD109506
S113017070E0C801860F971F8F3F910509F0ECF5D9
S11301809923ECF1882777FD8095982F0E94E1054B
S113019020E030E04EEF52E40E944B054B015C013D
S11301A06FEF70E0601B710B882777FD8095982FA7
S11301B00E94E1059B01AC01C501B4010E946D06DA
S11301C0A70196010E946D0620E030E040E05FE365
S11301D00E94E7046B017C01662D772767FD70950B
S11301E0872F972F0E94E1059B01AC01C701B6013F
S11301F00E94E7040E94B30503C06FEF01C060E0F2
S1130200711001C060E08B81811101C06095E981AA
S1130210FA816083DF91CF911F910F91FF90EF904E
S1130220DF90CF90BF90AF909F908F907F906F9012
S11302300895FC01613091F481E08383A481B58148
S11302404C9121E030E0C901068002C0880F991F5B
S11302500A94E2F7809584238C93089561110FC06A
S11302601382A481B5814C9121E030E0C90106805C
S113027002C0880F991F0A94E2F7842B8C93089587
S1130280EF92FF920F931F93FC016083528341838B
S113029015830483E682F901608141E050E0FA01AC
S11302A002C0EE0FFF1FEA94E2F77F01E62AF9018C
S11302B0E08261E00E9419011F910F91FF90EF907D
S11302C008953C9A449A08953C9A88B1807E88B9EE
S11302D0089583379105F8F08A3523E09207E8F40E
S11302E0BC0180E090E00E94DF0522E430E645E6B0
S11302F05BE30E946D0629E23CE54FE95FEB0E9457
S1130300D00622E430E647ED51E40E946D060E94D7
S1130310B305862F089583E6089580E00895ECE7F9
S1130320F0E09081907F90839081892B8083EAE72D
S1130330F0E0808180648083808186FDFDCF8091A0
S11303407800909179000895CF93DF93CDB7DEB70D
S113035063970FB6F894DEBF0FBECDBF82E08AB9B3
S11303608FEF84B9289A299AEAE7F0E080818660C1
S11303708083ACE7B0E08C9180648C93808180684A
S11303808083808180648083269A2E9A0F2EF7E0E2
S1130390EF2EF02D0BE210E02AE230E047E450E0CB
S11303A06AE0CE0101960E94400105E210E024E2D9
S11303B030E048E450E06AE0CE0108960E94400133
S11303C00E94940064E671E081E691E00E941E03BD
S11303D00E946401789480E895E20E942703529A6F
S11303E05A9A1FE70F2EFFE7CF2EF02DAA24A394CD
S11303F00F2EF8E0EF2EF1E0FF2EF02D0F2EF7E098
S11304009F2EF02D0F2EFFE7BF2EF02D0F2EF4E6BA
S11304106F2E712CF02D8FE697E10197F1F700C054
S1130420000085E00E948F010E946901082F0E944C
S11304308F032F87388B498B5A8B6B8B832F222307
S113044009F447C03F703730C1F4AA20B1F00E94CC
S11304506101098B988A4F85592D602F7A898B8980
S11304600E94C6030E94D304EFECF7E03197F1F742
S113047000C000000E9464012CC0813019F0823059
S113048021F027C0C9881A8924C069897A8980E043
S113049090E00E94DF0520E030E44CE156E40E9445
S11304A04B056093000170930101809302019093C6
S11304B003018A891F928F9389891F928F93FF92D8
S11304C0EF920E9457080F900F900F900F900F908B
S11304D00F901F3779F4FFE7CF120CC00A3108F4EC
S11304E096C02E98F301808181608083043160F08E
S11304F0A12C4EC02E9AF30180818E7F808304311B
S113050060F5AA24A39404C0A12C02C0AA24A39435
S113051061E0CE0108960E941901209100013091FA
S1130520010140910201509103016B2DCE01089607
S11305300E94A10061E0CE0101960E941901209160
S113054000013091010140910201509103016B2D92
S1130550CE0101960E94A10057C0FEE7FC15B0F041
S113056060E0CE0101960E941901209100013091B2
S1130570010140910201509103016B2D6C19CE01D0
S113058001960E94A100AA24A39415C0AA24A394AE
S113059061E0CE0101960E94190120910001309181
S11305A00101409102015091030161E86C0DCE01FB
S11305B001960E94A1001F37A0F460E0CE010896C6
S11305C00E94190120910001309101014091020122
S11305D0509103016B2D611BCE0108960E94A1006E
S11305E013C061E0CE0108960E9419012091000118
S11305F030910101409102015091030161E8610FC2
S1130600CE0108960E94A1000E94120304CF2E9AE4
S1130610F30180818E7F8083043108F477CFAA248C
S1130620A394B6CF83B7817F83BF83B7816083BF31
S11306307894889583B78E7F83BF0895909325011E
S113064080932401709327016093260108959C01EF
S113065040E050E060E271EA87E090E00E943508F3
S1130660215031093093C5002093C400E1ECF0E03F
S113067088E1808386E08093C2008081806A8083E1
S1130680089570E0161617066CF4E82FF92F20E091
S113069030E080E0919189272F5F3F4F261737077D
S11306A0CCF3089580E008951F93CF93DF9300D097
S11306B000D01F92CDB7DEB7182F80931F0195E0AD
S11306C0EBE1F1E0AAE1B1E001900D929A95E1F736
S11306D080911A01863689F464E08AE191E00E94EF
S11306E0410318130AC085E0EAE1F1E0DE01119646
S11306F001900D928A95E1F701C0198229813A810E
S11307004B815C816D8170E080E090E00F900F90F0
S11307100F900F900F90DF91CF911F910895CF9379
S1130720DF93CDB7DEB72B970FB6F894DEBF0FBEBD
S1130730CDBF14C08E810E9454032F83388749870C
S11307405A876B87222351F085E0FE013796DE013C
S1130750119601900D928A95E1F707C0CE01069695
S11307600E946C048111E6CF198229813A814B8160
S11307705C816D8170E080E090E02B960FB6F89478
S1130780DEBF0FBECDBFDF91CF910895CF93DF932E
S1130790CDB7DEB72C970FB6F894DEBF0FBECDBF32
S11307A0488759876A877B878C8764E0CE010896DF
S11307B00E9441038C878FEF95E59A83898385E0B6
S11307C0FE013896DE01139601900D928A95E1F7A9
S11307D067E0CE0101960E94AD042C960FB6F89402
S11307E0DEBF0FBECDBFDF91CF9108951F920F9250
S11307F00FB60F9211242F938F939F93EF93FF9330
S113080080912301882309F18091230181508093F1
S11308102301E0910601F091070180818093C600D5
S11308208091060190910701019621E0803F920793
S113083028F490930701809306010CC08CE891E0A2
S1130840909307018093060105C0E1ECF0E08081FC
S11308508F7D8083FF91EF919F918F912F910F90C6
S11308600FBE0F901F9018951F920F920FB60F9204
S113087011242F938F939F93EF93FF93E09104019F
S1130880F09105018091C6008083809104019091CC
S11308900501019621E08C38920728F49093050114
S11308A08093040106C088E291E09093050180934F
S11308B0040180912201843628F4809122018F5F03
S11308C080932201FF91EF919F918F912F910F902F
S11308D00FBE0F901F901895F894209122012223A7
S11308E0C9F020912201E0910401F0910501E21B7D
S11308F0F10921E0E832F20710F4EC59FF4F20919E
S113090022012150209322012081FC01208378942C
S113091081E00895789480E00895F89490912301FB
S11309209436C8F490912301E0910601F0910701F7
S1130930E90FF11D91E0E03FF90710F0E456F109E9
S11309408083809123018F5F80932301E1ECF0E0A9
S1130950808180628083789408950F931F93CF934E
S1130960DF93062F009799F02091230130E0260FA2
S1130970311D243631056CF4662369F0EC0110E076
S113098089910E948D041F5F1013FACF06C08FEF68
S113099005C08EEF03C080E001C080E0DF91CF91FD
S11309A01F910F9108958091C10085FF0EC0E1EC65
S11309B0F0E0809120019091210101969093210112
S11309C080932001808185FDF4CF08955058BB2782
S11309D0AA270ED048C139D130F03ED120F031F4ED
S11309E09F3F11F41EF42EC10EF4E095E7FB24C1E1
S11309F0E92F4AD180F3BA17620773078407950772
S1130A0018F071F49EF562C10EF4E0950B2EBA2F26
S1130A10A02D0B01B90190010C01CA01A001112400
S1130A20FF27591B99F0593F50F4503E68F11A16AC
S1130A30F040A22F232F342F4427585FF3CF46953D
S1130A4037952795A795F0405395C9F77EF41F165F
S1130A50BA0B620B730B840BBAF09150A1F0FF0F29
S1130A60BB1F661F771F881FC2F70EC0BA0F621F15
S1130A70731F841F48F4879577956795B795F79505
S1130A809E3F08F0B3CF9395880F08F09927EE0F97
S1130A909795879508950CD0E6C0DED040F0D5D068
S1130AA030F021F45F3F19F0C7C0511110C1CAC022
S1130AB0EBD098F39923C9F35523B1F3951B550B48
S1130AC0BB27AA2762177307840738F09F5F5F4F1D
S1130AD0220F331F441FAA1FA9F333D00E2E3AF05E
S1130AE0E0E830D091505040E695001CCAF729D078
S1130AF0FE2F27D0660F771F881FBB1F26173707C7
S1130B004807AB07B0E809F0BB0B802DBF01FF27F6
S1130B1093585F4F2AF09E3F510568F08DC0D7C0AF
S1130B205F3FECF3983EDCF3869577956795B79530
S1130B30F7959F5FC9F7880F911D9695879597F94B
S1130B400895E1E0660F771F881FBB1F62177307C4
S1130B508407BA0720F0621B730B840BBA0BEE1FD9
S1130B6088F7E095089598D088F09F5790F0B92FB2
S1130B709927B751A0F0D1F0660F771F881F991FEE
S1130B801AF0BA95C9F712C0B13081F09FD0B1E024
S1130B9008959CC0672F782F8827B85F39F0B93F34
S1130BA0CCF3869577956795B395D9F73EF49095F0
S1130BB08095709561957F4F8F4F9F4F0895E8946E
S1130BC009C097FB3EF490958095709561957F4F91
S1130BD08F4F9F4F9923A9F0F92F96E9BB2793953F
S1130BE0F695879577956795B795F111F8CFFAF44F
S1130BF0BB0F11F460FF1BC06F5F7F4F8F4F9F4F80
S1130C0016C0882311F096E911C0772321F09EE8DD
S1130C10872F762F05C0662371F096E8862F70E043
S1130C2060E02AF09A95660F771F881FDAF7880F1D
S1130C309695879597F9089597F99F6780E870E0EE
S1130C4060E008959FEF80EC089500240A9416163E
S1130C50170618060906089500240A9412161306A6
S1130C60140605060895092E0394000C11F4882334
S1130C7052F0BB0F40F4BF2B11F460FF04C06F5F50
S1130C807F4F8F4F9F4F089557FD9058440F551F26
S1130C9059F05F3F71F04795880F97FB991F61F0FA
S1130CA09F3F79F087950895121613061406551F71
S1130CB0F2CF4695F1DF08C0161617061806991FDD
S1130CC0F1CF86957105610508940895E894BB27D2
S1130CD066277727CB0197F908950BD0C4CFB5DFEA
S1130CE028F0BADF18F0952309F0A6CFABCF112472
S1130CF0EECFCADFA0F3959FD1F3950F50E0551FB7
S1130D00629FF001729FBB27F00DB11D639FAA275C
S1130D10F00DB11DAA1F649F6627B00DA11D661FAB
S1130D20829F2227B00DA11D621F739FB00DA11DCC
S1130D30621F839FA00D611D221F749F3327A00D86
S1130D40611D231F849F600D211D822F762F6A2F22
S1130D5011249F5750408AF0E1F088234AF0EE0FA7
S1130D60FF1FBB1F661F771F881F91505040A9F7B4
S1130D709E3F510570F060CFAACF5F3FECF3983EE1
S1130D80DCF3869577956795B795F795E7959F5F1B
S1130D90C1F7FE2B880F911D9695879597F90895B5
S1130DA0FA01EE0FFF1F30962105310599F1611507
S1130DB0710561F48038BFE39B0749F1689490386A
S1130DC0810561F08038BFEF9B0741F0992342F51C
S1130DD0FF3FE1053105210511F1E8940894E795F9
S1130DE0D901AA2329F4AB2FBE2FF85FD0F310C08A
S1130DF0FF5F70F4A695E0F7F73950F019F0FF3A69
S1130E0038F49F779F930CD00F9007FC9058089567
S1130E103EF018CF60E070E080E89FE308954FE76C
S1130E209F775F934F933F932F939ED02F913F9142
S1130E304F915F9152DF05C019F40EF0FDCE46CFFD
S1130E4001CF2ADFC8F39638C0F707F80F92E89469
S1130E502BE33AEA48EB5FE74EDF0F920F920F92D3
S1130E604DB75EB70F92C0D0E8E6F0E016D04F91D0
S1130E705F91EF91FF91E595EE1FFF1F49F0FE573B
S1130E80E0684427EE0F441FFA95E1F74195550BAE
S1130E9032D00F9007FE26C00895DF93CF931F939F
S1130EA00F93FF92EF92DF927B018C01689405C04F
S1130EB0DA2EEF011EDFFE01E894A591259135910C
S1130EC045915591AEF3EF0193DDFE019701A80121
S1130ED0DA9479F7DF90EF90FF900F911F91CF9103
S1130EE0DF9108959B01AC0160E070E080E89FE32E
S1130EF0D2CDA2CEACC0D0DEE8F39923D9F3940FBF
S1130F00511DBBF39150504094F059F0882332F0B6
S1130F10660F771F881F91505040C1F79E3F5105BF
S1130F2044F7880F911D9695879597F908955F3F2B
S1130F30ACF0983E9CF0BB27869577956795B7955E
S1130F4008F4B1609395C1F7BB0F58F711F460FF33
S1130F50E8CF6F5F7F4F8F4F9F4FE3CFB8CE0EF038
S1130F6076C070CE689468CE97DEC8F39923D1F327
S1130F70C6F3DF93CF931F930F93FF92C92FDD27FF
S1130F8088232AF02197660F771F881FDAF720E05D
S1130F9030E040E85FEB9FE3883920F0803E30F09A
S1130FA021968F7714DDE0E9F0E003C010DDEDEB6E
S1130FB0F0E073DF8B01BE01EC01FB2E6F5771096A
S1130FC07595771F880B990BFCDD28E132E741E327
S1130FD05FE38FDEAF2D9801AE01FF900F911F915B
S1130FE0CF91DF9105DD3FCEFA01DC01AA0FBB1FD3
S1130FF09B01AC01BF5728F422273327442750789C
S11310001FC0B75188F4AB2F002446953795279518
S1131010011CA395D2F3002069F0220F331F441F53
S1131020B395DAF30DD0D2CC61307105A0E88A070C
S1131030B94630F49B01AC0166277727882790785E
S1131040309621F0208331834283538308959F3F58
S113105031F0915020F4879577956795B795880F6F
S1131060911D9695879597F90895A1E21A2EAA1BCA
S1131070BB1BFD010DC0AA1FBB1FEE1FFF1FA21744
S1131080B307E407F50720F0A21BB30BE40BF50B41
S1131090661F771F881F991F1A9469F760957095CA
S11310A0809590959B01AC01BD01CF010895A0E00E
S11310B0B0E0EDE5F8E00C94F30AFE013596619199
S11310C07191AF018091F2019091F3010E946B083C
S11310D0E2E00C940F0BACE0B0E0E1E7F8E00C9434
S11310E0E30A7C016B018A01FC0117821682838169
S11310F081FFBDC1CE0101964C01F7019381F60138
S113110093FD859193FF81916F01882309F4ABC10D
S1131110853239F493FD859193FF81916F01853276
S113112029F4B70190E00E94530AE7CF512C312CE7
S113113020E02032A0F48B3269F030F4803259F090
S1131140833269F420612CC08D3239F0803339F454
S1131150216026C02260246023C0286021C027FDAE
S113116027C030ED380F3A3078F426FF06C0FAE095
S11311705F9E300D1124532E13C08AE0389E300D2B
S11311801124332E20620CC08E3221F426FD6BC153
S1131190206406C08C3611F4206802C0883641F4FD
S11311A0F60193FD859193FF81916F018111C1CF68
S11311B0982F9F7D9554933028F40C5F1F4FFFE3C5
S11311C0F9830DC0833631F0833771F0833509F02C
S11311D05BC022C0F801808189830E5F1F4F4424C5
S11311E04394512C540115C03801F2E06F0E711C68
S11311F0F801A080B18026FF03C0652D70E002C015
S11312006FEF7FEFC5012C870E94480A2C018301F0
S11312102C852F77222E17C03801F2E06F0E711C37
S1131220F801A080B18026FF03C0652D70E002C0E4
S11312306FEF7FEFC5012C870E943D0A2C012C859E
S11312402068222E830123FC1BC0832D90E04816C6
S11312505906B0F4B70180E290E00E94530A3A9430
S1131260F4CFF50127FC859127FE81915F01B70139
S113127090E00E94530A31103A94F1E04F1A510859
S11312804114510471F7E5C0843611F0893639F5FB
S1131290F80127FF07C060817181828193810C5F0F
S11312A01F4F08C060817181882777FD8095982F32
S11312B00E5F1F4F2F76B22E97FF09C09095809531
S11312C0709561957F4F8F4F9F4F2068B22E2AE013
S11312D030E0A4010E94850AA82EA81844C08537CE
S11312E029F42F7EB22E2AE030E025C0F22FF97FB8
S11312F0BF2E8F36C1F018F4883579F0B4C080372A
S113130019F0883721F0AFC02F2F2061B22EB4FE20
S11313100DC08B2D8460B82E09C024FF0AC09F2FF6
S11313209660B92E06C028E030E005C020E130E028
S113133002C020E132E0F801B7FE07C0608171818C
S1131340828193810C5F1F4F06C06081718180E0B0
S113135090E00E5F1F4FA4010E94850AA82EA818D2
S1131360FB2DFF77BF2EB6FE0BC02B2D2E7FA514B1
S113137050F4B4FE0AC0B2FC08C02B2D2E7E05C06A
S11313807A2C2B2D03C07A2C01C0752C24FF0DC0A0
S1131390FE01EA0DF11D8081803311F4297E09C01C
S11313A022FF06C07394739404C0822F867809F0D8
S11313B0739423FD13C020FF06C05A2C731418F431
S11313C0530C5718732C731468F4B70180E290E03F
S11313D02C870E94530A73942C85F5CF731410F450
S11313E0371801C0312C24FF12C0B70180E390E00C
S11313F02C870E94530A2C8522FF17C021FF03C0AB
S113140088E590E002C088E790E0B7010CC0822F25
S1131410867859F021FD02C080E201C08BE227FDED
S11314208DE2B70190E00E94530AA51438F4B70185
S113143080E390E00E94530A5A94F7CFAA94F401EF
S1131440EA0DF11D8081B70190E00E94530AA110BA
S1131450F5CF332009F451CEB70180E290E00E9429
S1131460530A3A94F6CFF7018681978102C08FEF31
S11314709FEF2C96E2E10C94FF0AFC010590615069
S113148070400110D8F7809590958E0F9F1F089596
S1131490FC016150704001900110D8F7809590953F
S11314A08E0F9F1F08950F931F93CF93DF93182FD1
S11314B0092FEB018B8181FD03C08FEF9FEF20C0CB
S11314C082FF10C04E815F812C813D8142175307FA
S11314D07CF4E881F9819F012F5F3F4F3983288392
S11314E0108306C0E885F985812F0995892B29F792
S11314F02E813F812F5F3F4F3F832E83812F902F7B
S1131500DF91CF911F910F910895FA01AA272830F6
S113151051F1203181F1E8946F936E7F6E5F7F4FBC
S11315208F4F9F4FAF4FB1E03ED0B4E03CD0670F38
S1131530781F891F9A1FA11D680F791F8A1F911D8B
S1131540A11D6A0F711D811D911DA11D20D009F4DB
S113155068943F912AE0269F11243019305D31931D
S1131560DEF6CF010895462F4770405D4193B3E006
S11315700FD0C9F7F6CF462F4F70405D4A3318F0AD
S1131580495D31FD4052419302D0A9F7EACFB4E05E
S1131590A6959795879577956795BA95C9F7009716
S11315A06105710508959B01AC010A2E06945795B7
S11315B0479537952795BA95C9F7620F731F841F0E
S11315C0951FA01D08952F923F924F925F926F92A4
S11315D07F928F929F92AF92BF92CF92DF92EF92BF
S11315E0FF920F931F93CF93DF93CDB7DEB7CA1B40
S11315F0DB0B0FB6F894DEBF0FBECDBF09942A886B
S1131600398848885F846E847D848C849B84AA8412
S1131610B984C884DF80EE80FD800C811B81AA819F
S1131620B981CE0FD11D0FB6F894DEBF0FBECDBF6A
S10B1630ED010895F894FFCFC9
S11316380000803F28018C0150616B6574212025CE
S10D16486420262025640A0D00002A
S9030000FC
