:100000000C9434000C9451000C9451000C94510049
:100010000C9451000C9451000C9451000C9451001C
:100020000C9451000C9451000C9451000C9451000C
:100030000C9451000C9451000C9451000C945100FC
:100040000C9451000C9451000C9465020C942702FE
:100050000C9451000C9451000C9451000C945100DC
:100060000C9451000C94510011241FBECFEFD8E026
:10007000DEBFCDBF11E0A0E0B1E0EEECFBE002C0DE
:1000800005900D92A032B107D9F722E0A0E2B1E0CD
:1000900001C01D92A430B207E1F70E94C9000C9480
:1000A000E5050C9400008AB180668AB984B5816A3E
:1000B00084BD85B5846085BD16BC17BC18BC089589
:1000C000FC012081822F992787FD9095860F911D35
:1000D0008F3F910509F024F4992324F0620F03C0A7
:1000E0006FEF01C060E08381811101C060950180E4
:1000F000F281E02D60830895FC01613091F481E08C
:100100008383A481B5814C9121E030E0C901068050
:1001100002C0880F991F0A94E2F7809584238C937C
:10012000089561110FC01382A481B5814C9121E023
:1001300030E0C901068002C0880F991F0A94E2F7D7
:10014000842B8C930895EF92FF920F931F93FC01E1
:1001500060835283418315830483E682F9016081C1
:1001600041E050E0FA0102C0EE0FFF1FEA94E2F70F
:100170007F01E62AF901E08261E00E947C001F9184
:100180000F91FF90EF9008950E94BE0280E090E0F2
:100190000895CF93DF93CDB7DEB763970FB6F8948A
:1001A000DEBF0FBECDBF0F2EF3E0EF2EF02D0BE222
:1001B00010E02AE230E047E450E060E0CE01019632
:1001C0000E94A3006894EE24E2F82AE230E048E4BA
:1001D00050E060E0CE0108960E94A3000E94530008
:1001E00082E08AB98FEF84B9289A299A789480E8B6
:1001F00095E20E94880184EC90E090933101809315
:100200003001109233011092320182E080932B0171
:10021000109235011092340188E291E0909301022E
:100220008093000264E084E091E00E94DA020F2EE5
:10023000FFE7EF2EF12CF02D0FE710E00F2EFCE082
:10024000CF2EF1E0DF2EF02D0F2EFFE7BF2EF02D89
:1002500061E08AE091E00E94DA028FE39CE9019775
:10026000F1F700C000000E94F0012F87388B498B06
:100270005A8B6B8B222381F0313071F4042F10E004
:10028000E52EF12C1F924F93DF92CF920E94220312
:100290000F900F900F900F900F37110564F460E0EE
:1002A000CE0101960E947C006B2D601BCE01019651
:1002B0000E9460000BC061E0CE0101960E947C00AC
:1002C00061E8600FCE0101960E9460009FE7E91689
:1002D000F10464F460E0CE0108960E947C006B2D6E
:1002E0006E19CE0108960E9460000BC061E0CE013D
:1002F00008960E947C0061E86E0DCE0108960E946F
:1003000060008FE99FE00197F1F700C00000A0CFE7
:100310009C0140E050E060E271EA87E090E00E94DA
:100320000003215031093093C5002093C400E1EC53
:10033000F0E088E1808386E08093C2008081806A5B
:100340008083089570E0161617066CF4E82FF92FD5
:1003500020E030E080E0919189272F5F3F4F261702
:100360003707CCF3089580E008951F93CF93DF9370
:1003700000D000D01F92CDB7DEB7182F8093250193
:1003800095E0E1E2F1E0A0E2B1E001900D929A95F2
:10039000E1F780912001863689F464E080E291E003
:1003A0000E94A20118130AC085E0E0E2F1E0DE013C
:1003B000119601900D928A95E1F701C01982298169
:1003C0003A814B815C816D8170E080E090E00F901C
:1003D0000F900F900F900F90DF91CF911F91089584
:1003E000CF93DF93CDB7DEB72B970FB6F894DEBF70
:1003F0000FBECDBF14C08E810E94B5012F833887F8
:1004000049875A876B87222351F085E0FE01379692
:10041000DE01119601900D928A95E1F707C0CE0199
:1004200006960E949D028111E6CF198229813A81A8
:100430004B815C816D8170E080E090E02B960FB67F
:10044000F894DEBF0FBECDBFDF91CF9108951F920C
:100450000F920FB60F9211242F938F939F93EF93C8
:10046000FF9380912701882309F180912701815012
:1004700080932701E0910201F09103018081809334
:10048000C6008091020190910301019621E08E3F08
:10049000920728F490930301809302010CC08AE92B
:1004A00091E0909303018093020105C0E1ECF0E03C
:1004B00080818F7D8083FF91EF919F918F912F910C
:1004C0000F900FBE0F901F9018951F920F920FB6AE
:1004D0000F9211242F938F939F93EF93FF93E091AB
:1004E0000001F09101018091C6008083809100019C
:1004F00090910101019621E08A39920728F49093A6
:1005000001018093000106C086E391E09093010110
:100510008093000180912601843628F48091260181
:100520008F5F80932601FF91EF919F918F912F9183
:100530000F900FBE0F901F901895F89420912601F0
:100540002223C9F020912601E0910001F0910101E0
:10055000E21BF10921E0E633F20710F4EC59FF4FFA
:10056000209126012150209326012081FC01208327
:10057000789481E00895789480E00895F8949091BB
:100580002701E0910201F0910301E90FF11D91E0D3
:10059000EE3FF90710F0E456F109808380912701BE
:1005A0008F5F80932701E1ECF0E08081806280839F
:1005B000789408950F931F93CF93DF93062F00979E
:1005C00099F02091270130E0260F311D24363105A6
:1005D0006CF4662369F0EC0110E089910E94BE0280
:1005E0001F5F1013FACF06C08FEF05C08EEF03C058
:1005F00080E001C080E0DF91CF911F910F910895BD
:10060000A1E21A2EAA1BBB1BFD010DC0AA1FBB1F16
:10061000EE1FFF1FA217B307E407F50720F0A21B88
:10062000B30BE40BF50B661F771F881F991F1A94F5
:1006300069F760957095809590959B01AC01BD011F
:10064000CF010895A0E0B0E0E8E2F3E00C94BE052D
:10065000FE01359661917191AF01809100029091F8
:1006600001020E943603E2E00C94DA05ACE0B0E04F
:10067000ECE3F3E00C94AE057C016B018A01FC0114
:1006800017821682838181FFBDC1CE0101964C0184
:10069000F7019381F60193FD859193FF81916F019D
:1006A000882309F4ABC1853239F493FD859193FF1A
:1006B00081916F01853229F4B70190E00E941E05F7
:1006C000E7CF512C312C20E02032A0F48B3269F09E
:1006D00030F4803259F0833269F420612CC08D32BD
:1006E00039F0803339F4216026C02260246023C0B1
:1006F000286021C027FD27C030ED380F3A3078F44C
:1007000026FF06C0FAE05F9E300D1124532E13C061
:100710008AE0389E300D1124332E20620CC08E32B8
:1007200021F426FD6BC1206406C08C3611F42068CC
:1007300002C0883641F4F60193FD859193FF8191C3
:100740006F018111C1CF982F9F7D9554933028F46C
:100750000C5F1F4FFFE3F9830DC0833631F0833701
:1007600071F0833509F05BC022C0F8018081898374
:100770000E5F1F4F44244394512C540115C038017F
:10078000F2E06F0E711CF801A080B18026FF03C05B
:10079000652D70E002C06FEF7FEFC5012C870E94CE
:1007A00013052C0183012C852F77222E17C03801C9
:1007B000F2E06F0E711CF801A080B18026FF03C02B
:1007C000652D70E002C06FEF7FEFC5012C870E949E
:1007D00008052C012C852068222E830123FC1BC0D8
:1007E000832D90E048165906B0F4B70180E290E0FE
:1007F0000E941E053A94F4CFF50127FC859127FE4F
:1008000081915F01B70190E00E941E0531103A947A
:10081000F1E04F1A51084114510471F7E5C08436D4
:1008200011F0893639F5F80127FF07C06081718121
:10083000828193810C5F1F4F08C06081718188277E
:1008400077FD8095982F0E5F1F4F2F76B22E97FF62
:1008500009C090958095709561957F4F8F4F9F4F00
:100860002068B22E2AE030E0A4010E945005A82E94
:10087000A81844C0853729F42F7EB22E2AE030E034
:1008800025C0F22FF97FBF2E8F36C1F018F48835BE
:1008900079F0B4C0803719F0883721F0AFC02F2F1E
:1008A0002061B22EB4FE0DC08B2D8460B82E09C01D
:1008B00024FF0AC09F2F9660B92E06C028E030E0C2
:1008C00005C020E130E002C020E132E0F801B7FECF
:1008D00007C060817181828193810C5F1F4F06C0C8
:1008E0006081718180E090E00E5F1F4FA4010E9443
:1008F0005005A82EA818FB2DFF77BF2EB6FE0BC003
:100900002B2D2E7FA51450F4B4FE0AC0B2FC08C0F3
:100910002B2D2E7E05C07A2C2B2D03C07A2C01C0E6
:10092000752C24FF0DC0FE01EA0DF11D808180337E
:1009300011F4297E09C022FF06C07394739404C089
:10094000822F867809F0739423FD13C020FF06C020
:100950005A2C731418F4530C5718732C731468F42E
:10096000B70180E290E02C870E941E0573942C85CD
:10097000F5CF731410F4371801C0312C24FF12C0C6
:10098000B70180E390E02C870E941E052C8522FF92
:1009900017C021FF03C088E590E002C088E790E01F
:1009A000B7010CC0822F867859F021FD02C080E289
:1009B00001C08BE227FD8DE2B70190E00E941E0589
:1009C000A51438F4B70180E390E00E941E055A9404
:1009D000F7CFAA94F401EA0DF11D8081B70190E0F0
:1009E0000E941E05A110F5CF332009F451CEB701A6
:1009F00080E290E00E941E053A94F6CFF7018681CE
:100A0000978102C08FEF9FEF2C96E2E10C94CA050C
:100A1000FC010590615070400110D8F780959095C9
:100A20008E0F9F1F0895FC016150704001900110CE
:100A3000D8F7809590958E0F9F1F08950F931F9361
:100A4000CF93DF93182F092FEB018B8181FD03C01A
:100A50008FEF9FEF20C082FF10C04E815F812C81FD
:100A60003D81421753077CF4E881F9819F012F5F94
:100A70003F4F39832883108306C0E885F985812F8D
:100A80000995892B29F72E813F812F5F3F4F3F83A7
:100A90002E83812F902FDF91CF911F910F91089579
:100AA000FA01AA27283051F1203181F1E8946F939F
:100AB0006E7F6E5F7F4F8F4F9F4FAF4FB1E03ED045
:100AC000B4E03CD0670F781F891F9A1FA11D680FE3
:100AD000791F8A1F911DA11D6A0F711D811D911D16
:100AE000A11D20D009F468943F912AE0269F11248B
:100AF0003019305D3193DEF6CF010895462F4770EF
:100B0000405D4193B3E00FD0C9F7F6CF462F4F7049
:100B1000405D4A3318F0495D31FD4052419302D0A7
:100B2000A9F7EACFB4E0A69597958795779567954D
:100B3000BA95C9F700976105710508959B01AC014D
:100B40000A2E06945795479537952795BA95C9F774
:100B5000620F731F841F951FA01D08952F923F924F
:100B60004F925F926F927F928F929F92AF92BF92BD
:100B7000CF92DF92EF92FF920F931F93CF93DF9369
:100B8000CDB7DEB7CA1BDB0B0FB6F894DEBF0FBEC6
:100B9000CDBF09942A88398848885F846E847D8413
:100BA0008C849B84AA84B984C884DF80EE80FD8015
:100BB0000C811B81AA81B981CE0FD11D0FB6F8948B
:0E0BC000DEBF0FBECDBFED010895F894FFCF4C
:100BCE0036019A012057616974002E0050616B65E1
:100BDE007421207061796C6F61643A202564000085
:00000001FF
